:020000040800F2
:100000002808002055020008C11F0008791E0008BA
:10001000BD1F00084D04000825270008000000004F
:10002000000000000000000000000000A520000803
:100030006904000800000000C51F0008A92000088E
:100040006F0200086F0200086F0200086F020008CC
:100050006F0200086F0200086F0200086F020008BC
:100060006F0200086F0200086F0200086F020008AC
:10007000510400086F0200086F0200086F020008B8
:100080006F0200086F0200086F0200086F0200088C
:100090006F0200086F0200086F0200086F0200087C
:1000A0006F0200086F0200086F0200086F0200086C
:1000B0006F0200086F0200086F0200086F0200085C
:1000C0006F0200086F0200086F0200086F0200084C
:1000D0006F0200080D2700086F02000819270008AA
:1000E0006F0200086F0200086F0200086F0200082C
:1000F0006F0200086F0200086F0200086F0200081C
:100100006F0200086F0200086F0200086F0200080B
:100110006F0200086F0200086F0200086F020008FB
:100120006F0200086F0200086F0200086F020008EB
:100130006F0200086F0200086F0200086F020008DB
:100140006F0200086F0200086F0200086F020008CB
:100150006F0200086F0200085D0400086F020008CB
:100160006F0200086F0200086F0200086F020008AB
:100170006F0200086F0200086F0200080000000014
:100180006F0200086F02000800F002F800F052F859
:1001900014A696E8000CB244B344DA4501D100F04D
:1001A00049F8BAE80F000FA696E83000A5EB040561
:1001B00004EB0607AAEB0704A7F101074FEA1515A0
:1001C0004FEA3414A4F10104AC4201D300F032F838
:1001D00013F0010F18BFFB1A43F0010300F001F800
:1001E000DBE71847B4260000D4260000103A24BFED
:1001F00078C878C1FAD8520724BF30C830C144BF8C
:1002000004680C6070470000704700000023002461
:1002100000250026103A28BF78C1FBD8520728BF16
:1002200030C148BF0B6070471FB502F018FB1FBDFF
:1002300010B510BD00F0D0F81146FFF7F5FF02F041
:10024000F3FA00F0EEF803B4FFF7F2FF03BC00F09E
:10025000F5F800000948804709480047FEE7FEE737
:10026000FEE7FEE7FEE7FEE7FEE7FEE7FEE7FEE766
:1002700004480549054A064B70470000592100080B
:1002800089010008280200202808002028040020F6
:100290002804002053EA020C00F069802DE9F04B9D
:1002A0004FF00006002B1FBFB3FA83F503FA05F4E5
:1002B00024FA05F65E4012BF1643B2FA82F502FA3E
:1002C00005F4C5F120051EBF22FA05FC44EA0C0422
:1002D000203556EA044C4FEA144418BF641C4FF012
:1002E00000084FF00009904271EB030C39D300294C
:1002F00019BFB1FA81F701FA07F6B0FA80F700FAF0
:1003000007F6C7F120071EBF20FA07FC46EA0C06D5
:100310002037B6FBF4FCA7EB0507103F07F01F0BD7
:10032000CBF120062CFA06F60CFA0BFB44BFB346C1
:100330000026202FA4BF5E464FF0000B5BEA060CA0
:1003400008BF4FF0010B19EB0B0948EB0608ABFB9C
:10035000027C06FB02CC0BFB03CCC01B71EB0C0137
:10036000C1E70B46024641464846BDE8F08B13B54F
:10037000084318BF4FF0FF300146AFF30080BDE8DF
:100380001C4070474FF0000200B513469446964655
:10039000203922BFA0E80C50A0E80C50B1F1200198
:1003A000BFF4F7AF090728BFA0E80C5048BF0CC046
:1003B0005DF804EB890028BF40F8042B08BF7047A4
:1003C00048BF20F8022B11F0804F18BF00F8012B16
:1003D0007047704770477047754600F02BF8AE467F
:1003E00005006946534620F00700854618B020B541
:1003F000FFF73EFFBDE820404FF000064FF000073A
:100400004FF000084FF0000BAC46ACE8C009ACE878
:10041000C009ACE8C009ACE8C00921F007018D466D
:10042000704710B50446AFF300802046BDE8104089
:10043000FFF709BF004870477000002001491820ED
:10044000ABBEFEE72600020070470000FEE700009A
:1004500040F23010C2F2000000F066B840F2D00066
:10046000C2F2000000F060B87047000072B600BF32
:10047000FEE7000070B5866D044600F01FFB94F89F
:100480003510022928D105462068216C026822F027
:1004900016020260426922F08002426109B9A16C31
:1004A00019B1016821F008010160016821F0010122
:1004B000016000BF20680068C00715D000F0FEFA98
:1004C000401B0628F6D320206065032084F8350001
:1004D000002184F8341070BD802060650120002167
:1004E00084F8341070BD00BFE06D3F2101FA00F0C8
:1004F000B060012084F835000020002184F8341019
:1005000070BD000090F83510022909D1052180F84E
:1005100035100068016821F001010160002070477A
:100520008021416501207047F0B581B00021009124
:1005300040F20801C2F200010B68D0E9166148F2EE
:10054000B51537680822C1F64E358A403A42A3FBFA
:1005500005350CD003681C68640708D51C6824F0B6
:1005600004041C60B260426D42F001024265012247
:100570008A403A4208D003685B691B0604D5B26022
:10058000426D42F00202426504228A403A4208D09B
:1005900003681B689B0704D5B260426D42F00402F9
:1005A000426510228A403A4219D001680B681B0745
:1005B00015D5B2600B680A685B0309D4D20509D46B
:1005C0000A6822F008020A60016C29B907E000BF3E
:1005D000110341D4016C11B1044688472046C26D15
:1005E000202101FA02F33B4243D001680F68FF0665
:1005F0003FD5B36090F835700B68052F1CD123F000
:1006000016030B604B6923F080034B61036C0BB93D
:10061000836C1BB10B6823F008030B603F219140F2
:10062000B160012180F83510016D0022002980F8A9
:10063000342054D158E000BF0A685B0310D4D205BF
:1006400012D40A6822F010020A60012180F83510E5
:10065000002180F8341007E0816C0029BCD1BEE78E
:10066000110301D4416C00E0C16B11B1044688470D
:100670002046416DC1B3416DC9072ED0052180F8D8
:1006800035100168AA0A0B6823F001030B60009B78
:100690000133934200931AD80B68DB0717D0009BF5
:1006A00001339342009312D80B68DB070FD0009BF5
:1006B0000133934200930AD80B68DB0707D0009BF5
:1006C00001339342009302D80B68DB07DFD101218D
:1006D00080F83510002180F83410C16C21B101B0D0
:1006E000BDE8F040084700BF01B0F0BD2DE9F04182
:1006F000044600F0E3F9ECB10546022084F8350029
:100700000020216884F83400086820F001000860A7
:1007100021680868C00711D000F0D0F9401B0528F7
:10072000F6D9032520230320636584F83550BDE8FE
:10073000F08100BF0120BDE8F08100BF086848F2E9
:100740003F02CFF21002D4E9013500EA020C04F1B5
:100750000C0898E8C10143EA0C032B431843D4E981
:10076000072E304338431043626A40EA0E00042AE1
:1007700040EA08031CD1206BD4E90A2E40EA0E009F
:10078000184308604869BEF1000F20F0030040EAFA
:10079000020040F0040C11D0B8F5005F36D0B8F17B
:1007A000000F45D1022A46D0012A3BD032B942E09F
:1007B0000B60486920F0070040EA020C01F0F800E5
:1007C0004AF6AB221038CAF6AA22A0FB02231A0965
:1007D00042F69003C1F814C0C0F600039A5C40F2E0
:1007E000FF335F284FF03F0021EA030100FA02F0D7
:1007F00088BF0431C4E91612886000230125002057
:10080000636584F83550BDE8F08100BF032AD5D870
:10081000012540230120DFE802F0030E030500BF9D
:1008200082E700BFAEF1C070B0FA80F0400904E08A
:10083000032A04D3C2D1CEF300600028BED0012524
:1008400040230120636584F83550BDE8F081000045
:1008500090F834C0BCF1010F04BF0220704770B59E
:100860004FF0010C80F834C0D0F858E090F835C053
:10087000BCF1010F38D14FF0020C80F835C04FF0B9
:10088000000CC0F854C0D0F800C08468056CC06D7E
:10089000DCF80060402C26F48026CCF80060CCF810
:1008A00004300B4604BF13460A463F2101FA00F00C
:1008B000CCF80830CCF80C20CEF80800DCF80000AA
:1008C00040F01600CCF800002DB1DCF8000040F03C
:1008D0000800CCF80000DCF8000040F00100CCF883
:1008E0000000002070BD00BF002180F834100220FD
:1008F00070BD0000B0B5044600F0E0F8054640F2D7
:100900000000C2F200000078611C18BF044400BF60
:1009100000F0D4F8401BA042FAD3B0BD2DE9F04F4F
:1009200083B000F1200200F13E4741F600450092FD
:1009300007F1FF77C4F2020508224FEAB726A84262
:1009400008BF072200254FF000084FF00009072ECE
:1009500038BF4FEAB72201920AE000BF09F101094E
:1009600008F10208B9F1100F05F1040500F0A280AA
:100970000F68012202FA09FE17EA0E0AEED0D1F83A
:1009800004C003220CF003077E1E02FA08F4012EB5
:100990006FEA040B12D88468CE6804EA0B0406FAE6
:1009A00008F634438460446824EA0E06CCF300144D
:1009B00004FA09F42643466004E000BF032F01D186
:1009C00003271EE0C6688C6806EA0B0604FA08F4E2
:1009D0002643022FC66014D16FF00302009E02EA84
:1009E000590756F807C005F01C040F220B69A240F6
:1009F0002CEA0202A3401A43F251D1F804C00CF0D1
:100A00000307026807FA08F302EA0B021A431CF410
:100A1000403F0260A2D0002243F644030292C4F297
:100A200002031A6843F6004442F480421A601A68CE
:100A3000C4F2010402F480420292029A29F00302F5
:100A40004FF6084C2244CFF6FF7C52F80C3005F0EC
:100A50000C070F26BE40B343019E06FA07F73B433F
:100A600042F80C30A2684B6842EA0A0743F60C4C85
:100A7000DE0258BF22EA0A07A760C4F2010CDCF8C4
:100A800000209E0242EA0A0758BF22EA0A07CCF871
:100A9000007062689E0342EA0A0758BF22EA0A070A
:100AA00067602268DB0342EA0A0758BF22EA0A07A6
:100AB000276053E703B0BDE8F08F000040F220202C
:100AC000C2F200000068704740F2000040F22021AE
:100AD000C2F20000C2F2000100780A681044086007
:100AE0007047000080B543F60040C4F20200016880
:100AF00041F400710160016841F4806101600168A6
:100B000041F480710160032000F086F80F2000F0AE
:100B100005F800F027F8002080BD000070B540F215
:100B20000006C2F2000640F208013278C2F200016B
:100B30004FF47A730968B3FBF2F20446B1FBF2F1A9
:100B4000084600F061FB0F2C4FF0010508D838B9BA
:100B50004FF0FF3021460022002500F031F874608C
:100B6000284670BD82B0002043F640010190C4F2D7
:100B700002014A6842F480424A604A6802F48042B4
:100B80000192019A0090086840F08050086008685F
:100B900000F080500090009802B07047002848BFD5
:100BA000704700F01F01012202FA01F11C2202EA43
:100BB000D0004EF20012CEF20002815070470000C9
:100BC00010B54EF60C5CCEF2000CDCF80030C3F32E
:100BD000022E8EF00704042C28BF0424BEF1030368
:100BE0004FF0FF3E0EFA04F438BF0023A1439940B2
:100BF0000EFA03F39A43114300F00F0200F1604331
:100C00000901043A03F564436244002848BF02F135
:100C10000C03197010BD00004EF60C51CEF200010D
:100C20000A684FF6FF031A4060F30A2242F0806020
:100C300040F0FD7008607047002804BF0120704735
:100C40002DE9F04143F60808C4F202080446D8F83A
:100C5000F8030D4600F00700814207D988F8F853E1
:100C6000D8F8F80300F00700A84277D12068810780
:100C700017D5410705D5D8F8001041F4E051C8F860
:100C80000010010705D5D8F8001041F46041C8F8FC
:100C90000010D8F80010A26821F0F0011143C8F844
:100CA0000010C00740D1D8F8F80300F007008542D3
:100CB00007D288F8F853D8F8F80300F00700A842E4
:100CC0004CD12068410707D5D8F80010E26821F41C
:100CD000E0511143C8F80010000708D5D8F800000B
:100CE000216920F4604040EAC100C8F8000000F02B
:100CF0007DF8D8F8001042F67802C1F30311C0F66F
:100D00000002515C40F2080220FA01F140F20400B6
:100D1000C2F200000068C2F200021160FFF7FEFE9E
:100D20000020BDE8F08100BF6068811E022907D263
:100D300058F8081C89015CBF0120BDE8F08111E072
:100D4000012807D158F8081C89035CBF0120BDE8C1
:100D5000F08107E058F8081C890703D40120BDE89A
:100D6000F08100BFD8F8001021F003010843C8F853
:100D70000000FFF7A3FE064641F28837D8F80000CE
:100D8000616800F00C00B0EB810F8CD0FFF796FE8D
:100D9000801BB842F2D90320BDE8F08140F2080080
:100DA00043F60801C2F20000C4F2020100680968BB
:100DB00042F68802C1F38221C0F60002515CC840AD
:100DC0007047000040F2080043F60801C2F200003C
:100DD000C4F202010068096842F68802C1F3423198
:100DE000C0F60002515CC8407047000010B543F6E1
:100DF0000404C4F202046168C1F3810142F20040BC
:100E0000C0F2F400DFE801F002040A0210BD00BFE6
:100E100047F64000C0F27D1010BD00BF2068216879
:100E20002368490247F64001C0F27D1100F03F02FD
:100E3000C3F388105CBF42F20041C0F2F401A1FB91
:100E400000010023FFF726FA21680222C1F30141C5
:100E500002EB4101B0FBF1F010BD0000002804BF1F
:100E6000012070472DE9F04182B00446007843F636
:100E70000006C007C4F202060CD0B06800F00C00F7
:100E8000042840F081803068800303D56068002822
:100E900000F06881207880071BD5B06810F00C0F37
:100EA00009D0B06800F00C00082840F08780706816
:100EB000400200F183803068800703D5E068012894
:100EC00040F050813068216920F0F80040EAC1000C
:100ED00030602078000713D4207840072AD4A56911
:100EE000002D00F03A81B06800F00C00082840F0B6
:100EF000A580012D40F00E81012002B0BDE8F081F7
:100F00006069002800F082800020C4F2472001219F
:100F1000C0F8801EFFF7D2FD054600BF706F800746
:100F2000DAD4FFF7CBFD401B0228F7D9032002B02B
:100F3000BDE8F081306C5FEAC0080AD4002001905F
:100F4000306C40F080503064306C00F08050019084
:100F5000019847F20007C4F200073868C00547D47B
:100F6000386840F480703860FFF7A8FD054600BF80
:100F70003868C0053CD4FFF7A1FD401B0228F7D913
:100F8000032002B0BDE8F081B06800F00C00082832
:100F900003D1706840023FF576AF61683068B1F503
:100FA000803F07D0B1F5A02F40F09A8040F4802018
:100FB0003060306840F4803030609AE0E0680028AB
:100FC00040F20000C4F247205CD001210160FFF72D
:100FD00075FD0546306880073FF574AFFFF76EFD7D
:100FE000401B0228F6D9032002B0BDE8F08100BF03
:100FF000A168306F012905D0052955D140F00400C2
:101000003067306F40F00100306756E00020C4F2D6
:1010100047200021C0F8801EFFF750FD054600BFA5
:10102000706F80077FF558AFFFF748FD401B02281F
:10103000F6D9032002B0BDE8F08100BF0027C4F25A
:10104000472700203866FFF739FD022D05460DD1F0
:101050003068800140F18A80FFF730FD401B022894
:101060004FF00300F4D902B0BDE8F0813068800190
:1010700073D5FFF723FD401B02284FF00300F5D97D
:10108000F1E700BF00210160FFF718FD054600BF32
:10109000306880077FF51DAFFFF710FD401B022869
:1010A0004FF00300F4D9DEE720F001003067306F25
:1010B000002920F0040030677AD0FFF7FFFC0546D6
:1010C00041F28837306F800700F18480FFF7F6FC2B
:1010D000401BB842F6D9032002B0BDE8F08100BF42
:1010E00020F4803030603068002920F480203060A7
:1010F0007AD0FFF7E3FC0546306880033FF5CAAEBF
:10110000FFF7DCFC401B6428F6D9032002B0BDE8E1
:10111000F08100BF7068E16900F480028A4221D149
:10112000216A00F03F028A421CD147F6C071626A10
:101130000140B1EB821F15D1A16A4FF6FF73C903BD
:10114000994300F44032A1F580318A420AD1E16A24
:1011500000F07060B0EB016F04D1002002B0BDE878
:10116000F08100BF012002B0BDE8F08104F11C0550
:101170002FCD084340EA8210D9034FF6FF72914306
:10118000A1F5803140EA05600843706001203866AF
:10119000FFF794FC044600BF30688001DDD4FFF700
:1011A0008DFC001B02284FF00300F5D95BE700BF60
:1011B000FFF784FC054641F2883700BF306F800797
:1011C00008D5FFF77BFC401BB8424FF00300F5D970
:1011D00049E700BFB8F1000F3FF581AE306C20F059
:1011E000805030647BE600BFFFF768FC054600BF17
:1011F000306880037FF54EAEFFF760FC401B64282B
:101200004FF00300F4D92EE7411E0020B0EB116F20
:101210001CBF012070474EF21002CEF20002516056
:101220004EF62351CEF20001F0230B70072190609F
:10123000116070477047000010B5044600684169AE
:1012400094F84120212A56D111F0800153D000BFDB
:10125000206850E8050F216820F0800041E8050271
:10126000DAB1206850E8050F216820F0800041E8DD
:10127000050292B1206850E8050F216820F0800037
:1012800041E805024AB1206850E8050F216820F0C6
:10129000800041E80502002ADAD1A06B002818BFBF
:1012A000FFF7E8F8206850E8030F216820F0C0003D
:1012B00041E80302DAB1206850E8030F216820F00A
:1012C000C00041E8030292B1206850E8030F216892
:1012D00020F0C00041E803024AB1206850E8030F43
:1012E000216820F0C00041E80302002ADAD1202062
:1012F00084F841002068406994F84210222940F0A7
:10130000A78010F0400000F0A38000BF206850E8E4
:10131000050F216820F0400041E80502DAB120689D
:1013200050E8050F216820F0400041E8050292B125
:10133000206850E8050F216820F0400041E80502D0
:101340004AB1206850E8050F216820F0400041E8CC
:101350000502002ADAD1E06B002818BFFFF78AF8EF
:10136000206850E8030F216820F4907041E80302E0
:10137000BAB3206850E8030F216820F4907041E868
:10138000030272B3206850E8030F216820F49070C4
:1013900041E803022AB3206850E8030F216820F4D3
:1013A000907041E80302002ADAD11AE0206850E880
:1013B000050F216820F0010041E80502DAB120683C
:1013C00050E8050F216820F0010041E8050292B1C4
:1013D000206850E8050F216820F0010041E805026F
:1013E0004AB1206850E8050F216820F0010041E86B
:1013F0000502002ADAD1206B012824D1206850E8A8
:10140000030F216820F0100041E80302DAB12068E0
:1014100050E8030F216820F0100041E8030292B168
:10142000206850E8030F216820F0100041E8030213
:101430004AB1206850E8030F216820F0100041E80D
:101440000302002ADAD1202084F842000020206321
:10145000002010BD70470000B0B582B001680A6876
:10146000CC684B6902F02F05202D04F0200505D132
:1014700025B102B0BDE8B04001F054B85FEA027C8B
:101480001EBF03F0010E04F4907313EB0E0341D161
:10149000036BD50618D5012B16D114F0100313D009
:1014A000002201920A6801924A680192019A4969F0
:1014B00049064BD4818DC28DC38D002B18BF91423C
:1014C00040F0068202B0B0BD13062DD514F08003A3
:1014D0002AD090F84120212AF4D18268B2F5805FA9
:1014E00003D10269002A00F07982026A531C036268
:1014F00012784A60C28C013A1304C284E2D1C868EF
:1015000020F08000C860C86840F04000C86002B0A9
:10151000B0BD00BFD30718BF14F4807340F0E28061
:10152000530700F1E580EAE05206CBD514F0400203
:10153000C8D0CA6822F04002CA60202180F8411059
:1015400002B0BDE8B04000F093BC00BFC26B1168B0
:101550004B68858D99B2002900F0B480A94280F0D3
:10156000B180C385D169B1F5807F00F0A0800168AA
:1015700051E8031F026821F4807142E80313DBB1D4
:10158000016851E8031F026821F4807142E80313E7
:1015900093B1016851E8031F026821F4807142E8A9
:1015A00003134BB1016851E8031F026821F48071F5
:1015B00042E80313002BDAD1016851E8051F0268E5
:1015C00021F0010142E80513BBB3016851E8051F92
:1015D000026821F0010142E8051373B3016851E884
:1015E000051F026821F0010142E805132BB30168D1
:1015F00051E8051F026821F0010142E80513002BA4
:10160000DAD11AE0016851E8051F026821F04001B3
:1016100042E80513DBB1016851E8051F026821F0BB
:10162000400142E8051393B1016851E8051F0268C3
:1016300021F0400142E805134BB1016851E8051F54
:10164000026821F0400142E80513002BDAD1202185
:1016500080F8421000210163016851E8031F02680D
:1016600021F0100142E80313DBB1016851E8031FC8
:10167000026821F0100142E8031393B1016851E8B8
:10168000031F026821F0100142E803134BB1016807
:1016900051E8031F026821F0100142E80313002BF8
:1016A000DAD1C16B04460846FEF7E4FE204602216B
:1016B0004163818DC28D891A89B202B0BDE8B04004
:1016C000FFF7B8BD8D427FF4FDAED269B2F5807FE1
:1016D0007FF4F8AE0222426302B0BDE8B040FFF7EB
:1016E000A9BD00BF436C43F001034364530706D513
:1016F000BEF1000F03D0436C43F002034364930731
:1017000006D5BEF1000F03D0436C43F004034364DD
:10171000BCF1000F06D55EEA050303D0436C43F02D
:1017200008034364436C002B3FF4CCAE920605D50E
:1017300025B1044600F0F6FE216820464969426C56
:1017400001F0400102F00802891800F0B98000BFE2
:10175000016851E8031F026821F4907142E8031305
:10176000BBB3016851E8031F026821F4907142E89D
:10177000031373B3016851E8031F026821F49071E9
:1017800042E803132BB3016851E8031F026821F4F8
:10179000907142E80313002BDAD11AE0016851E896
:1017A000051F026821F0010142E80513DBB1016861
:1017B00051E8051F026821F0010142E8051393B1C9
:1017C000016851E8051F026821F0010142E8051394
:1017D0004BB1016851E8051F026821F0010142E8A0
:1017E0000513002BDAD1016B012924D1016851E8DE
:1017F000031F026821F0100142E80313DBB1016806
:1018000051E8031F026821F0100142E8031393B16D
:10181000016851E8031F026821F0100142E8031338
:101820004BB1016851E8031F026821F0100142E842
:101830000313002BDAD1202180F84210002101632C
:1018400001684969490640F1C380016851E8051FF4
:10185000026821F0400142E80513DBB1016851E85C
:10186000051F026821F0400142E8051393B10168A9
:1018700051E8051F026821F0400142E805134BB111
:10188000016851E8051F026821F0400142E8051394
:10189000002BDAD1C16B002900F09A8042F26D1260
:1018A000C0F60002044608460A65FEF72BFE002833
:1018B0003FF408AEE06B016D02B0BDE8B0400847F0
:1018C0000446FFF7C7FD0020606402B0B0BD00BF52
:1018D000891A00BF026852E8032F036822F490724D
:1018E00043E80325BDB3026852E8032F036822F4DE
:1018F000907243E8032575B3026852E8032F03682A
:1019000022F4907243E803252DB3026852E8032FB6
:10191000036822F4907243E80325002DDAD11AE01F
:10192000026852E8052F036822F0010243E805250A
:10193000DDB1026852E8052F036822F0010243E896
:10194000052595B1026852E8052F036822F00102CF
:1019500043E805254DB1026852E8052F036822F0DF
:10196000010243E80525002DDAD1202280F842202B
:1019700000220263026852E8032F036822F010027B
:1019800043E80325DDB1026852E8032F036822F023
:10199000100243E8032595B1026852E8032F03685B
:1019A00022F0100243E803254DB1026852E8032FEC
:1019B000036822F0100243E80325002DDAD1022249
:1019C00089B2426302B0BDE8B040FFF733BC00BF4C
:1019D00002B0BDE8B040FFF73DBD00BF026A32F87B
:1019E000023B6FF35F234B60026283E5002804BF74
:1019F0000120704710B5044690F8410028B9002036
:101A000084F84000204600F021F8242084F84100AA
:101A10002068C16821F40051C160204600F002FE38
:101A20002068016921F490410161416921F02A0196
:101A30004161C16841F40051C1600020202160640F
:101A400084F8411084F84210606310BD2DE9F0471E
:101A500086B00446006844F60001C4F20001002686
:101A60008842CDE90466CDE90266019678D041F25C
:101A70000001C4F20101884240F0BC80002743F617
:101A800030000097C4F202004169002541F01001C6
:101A900041614169C4F2020501F010010091009911
:101AA0000097016801AE41F00201016001684FF04A
:101AB000020801F0020100910099009701684FF0BF
:101AC000030941F00101016000684FF0070A00F0CE
:101AD0000100009000988020019005F5806031465B
:101AE000CDE90287CDF81090CDF814A0FEF716FFCF
:101AF0004FF40070CDE9010803A880E8800628466D
:101B00003146FEF70BFF46F22800C4F2020040F215
:101B1000D00500F59260C2F200054FF0006140224E
:101B200085E887004FF440304FF48063C5E908072B
:101B30002846C5E90437C5E90677FEF7D7FD002832
:101B400018BFFEF793FC252000210022A563AC639B
:101B5000FFF736F82520FFF721F806B0BDE8F0873B
:101B600043F630000096C4F20200016941F480217E
:101B70000161016901F480210091009900960168DA
:101B800041F004010160006801A900F00400009028
:101B900000984FF4406001900220CDE90206032036
:101BA0000490072005900020C4F2020000F50060B8
:101BB000FEF7B4FE40F2301546F22800C2F20005EE
:101BC000C4F202004FF0006185E843004FF440305A
:101BD0004FF48062C5E908062846C5E90362C5E9F5
:101BE0000566EE61FEF782FD002818BFFEF73EFC99
:101BF000E563AC6306B0BDE8F087000070B582B065
:101C000090F84250202D0BD113460A460146002A77
:101C10004FF0010018BF002B06D102B070BD00BF0D
:101C2000022002B070BD00BF002622200E638A622F
:101C30008B854E6481F842000C680D46C86B42F2F9
:101C4000F52C42F25541C0F6000CC0F60001C0E987
:101C50000FC142F27911C0F60001C0E91316211D2F
:101C6000FEF7F6FD40B110206864202085F84200A0
:101C7000012002B070BD00BF0196286829460268A5
:101C80000192406801900198286928B3086850E8DB
:101C9000030F0A6840F4807042E80303E3B1086868
:101CA00050E8030F0A6840F4807042E803039BB1D8
:101CB000086850E8030F0A6840F4807042E80303A4
:101CC00053B1086850E8030F0A6840F4807042E896
:101CD0000303002BDAD100BF086850E8050F0A683B
:101CE00040F0010042E80503DBB3086850E8050F47
:101CF0000A6840F0010042E8050393B3086850E821
:101D0000050F0A6840F0010042E805034BB308687C
:101D100050E8050F0A6840F0010042E80503002B77
:101D2000DAD11EE0086850E8050F0A6840F040006C
:101D300042E80503FBB1086850E8050F0A6840F067
:101D4000400042E80503B3B1086850E8050F0A688F
:101D500040F0400042E80503002B4FF000003FF444
:101D60005CAF086850E8050F0A6840F0400042E8A0
:101D70000503002BD6D1002002B070BD40F2D8116F
:101D8000C2F20001884218BF704740F2D810C2F278
:101D9000000000F049B9000070470000B0B590F8AD
:101DA0004140202C1CBF0220B0BD13460246002932
:101DB0004FF0010018BF002B00D1B0BD4FF0000C58
:101DC000212011629384D384C2F844C082F8410078
:101DD00014681546906B42F26D4E42F21D52C0F6E9
:101DE000000EC0F60002C0E90FE242F27912C0F61E
:101DF0000002C0E9132C221DFEF72AFD30B110208D
:101E00006864202085F841000120B0BD286829467B
:101E10006FF04002026000BF086850E8050F0A68D2
:101E200040F0800042E8050303B3086850E8050F5E
:101E30000A6840F0800042E80503BBB1086850E83A
:101E4000050F0A6840F0800042E8050373B1086896
:101E500050E8050F0A6840F0800042E80503002BB7
:101E60004FF0000008BFB0BDD6E700BF0020B0BDF6
:101E70007047000070470000FEE7000080B582B0A8
:101E8000002043F630010190C4F202010A6842F4D6
:101E900080020A600A6802F480020192019A0090AE
:101EA0000868002240F4001008600868002100F46F
:101EB0000010009000980C20FEF782FE0C20FEF728
:101EC0006DFE462000210022FEF77AFE462002B079
:101ED000BDE88040FEF762BE81B0002043F63001CD
:101EE0000090C4F202010A6842F002020A600A6825
:101EF00002F002020092009A00900A6842F0040286
:101F00000A600A6802F004020092009A00900A68CF
:101F100042F001020A600A6802F001020092009A8F
:101F20000090086840F080000860086800F08000B9
:101F30000090009801B0704780B540F2901041F2D7
:101F40000001C2F20000C4F2010100234FF00C0CAA
:101F50004FF4E13280E80E00C0E90333C0E905C365
:101F6000C361FFF743FD002808BF80BDBDE8804086
:101F7000FEF77CBA10B540F2D81044F6000C48F2D7
:101F8000A062C2F20000C4F2000CC0F201024FF4E1
:101F9000805300214FF4806E0C24C0E900C2C0E9D8
:101FA0000231C0E904E4C0E90611FFF71FFD002873
:101FB00008BF10BDBDE81040FEF758BAFEE70000AC
:101FC000FEE700007047000010B540F20C04C2F2BA
:101FD0000004206800220068C16841F01001C1605F
:101FE00027200021FEF7ECFD2720FEF7D7FD54F84F
:101FF000040B24222146BDE81040FFF7FFBD00007E
:1020000080B5FEF75BFD40F20C01C2F20001CA6B25
:102010004B6C801A984299BF91F84C0000F0010077
:10202000002081F84C0080BD40F20C01C2F200019A
:102030000968884218BF704700680168C90601D462
:10204000704700BF81B00021009101680091406895
:102050000090009840F20C00C2F2000001B000F0C5
:1020600063BB000040F20C00C2F2000000F150011E
:1020700040F29010C2F200000A22FFF78FBE00006B
:1020800040F20C00C2F200004FF00421C0E914112C
:102090004FF48061A0F858100221C0F85A10C0F81F
:1020A0005E10704770470000FEF70EBD70B592B02D
:1020B00006AC20463021FEF765F9002543F64000C6
:1020C0000595CDE90355CDE901550095C4F202000F
:1020D0000168022641F080510160006800F08050E4
:1020E0000090009847F200000095C4F200000168DB
:1020F00041F480410160006800F480400090009845
:10210000012006904FF4803007904FF480000D902E
:1021100019200E904FF4A870CDE90F0604201190FD
:1021200020460C96FEF79AFE10B172B6FEE700BF8D
:102130000F20CDE901064FF4A05004904FF48050D9
:10214000059001A805210395FEF776FD10B172B642
:10215000FEE700BF12B070BD4EF68850CEF2000010
:10216000016841F47001016070470000806B00213C
:10217000C185FFF76FB90000806B01684A6990F86C
:102180004130212B2DD112F080022AD00021C184B0
:10219000016851E8031F026821F0C00142E80313FF
:1021A000DBB1016851E8031F026821F0C00142E879
:1021B000031393B1016851E8031F026821F0C001C5
:1021C00042E803134BB1016851E8031F026821F094
:1021D000C00142E80313002BDAD1202180F841101E
:1021E0000168496990F84220222A40F07D8011F070
:1021F000400179D00021C185016851E8031F0268C0
:1022000021F4907142E80313BBB3016851E8031F46
:10221000026821F4907142E8031373B3016851E836
:10222000031F026821F4907142E803132BB3016885
:1022300051E8031F026821F4907142E80313002B58
:10224000DAD11AE0016851E8051F026821F00101A6
:1022500042E80513DBB1016851E8051F026821F06F
:10226000010142E8051393B1016851E8051F0268B6
:1022700021F0010142E805134BB1016851E8051F47
:10228000026821F0010142E80513002BDAD1016B4D
:10229000012924D1016851E8031F026821F01001CF
:1022A00042E80313DBB1016851E8031F026821F023
:1022B000100142E8031393B1016851E8031F02685B
:1022C00021F0100142E803134BB1016851E8031FEC
:1022D000026821F0100142E80313002BDAD120211B
:1022E00080F8421000210163416C41F0100141640B
:1022F000FFF7B0B80168806B0968C90500F19F80DD
:102300000021C185016851E8031F026821F4807132
:1023100042E80313E3B1016851E8031F026821F4A6
:10232000807142E803139BB1016851E8031F026802
:1023300021F4807142E8031353B1016851E8031F8F
:10234000026821F4807142E80313002BDAD100BF48
:10235000016851E8051F026821F0010142E80513F8
:10236000BBB3016851E8051F026821F0010142E892
:10237000051373B3016851E8051F026821F00101DC
:1023800042E805132BB3016851E8051F026821F0EC
:10239000010142E80513002BDAD11AE0016851E887
:1023A000051F026821F0400142E80513DBB1016816
:1023B00051E8051F026821F0400142E8051393B17E
:1023C000016851E8051F026821F0400142E8051349
:1023D0004BB1016851E8051F026821F0400142E855
:1023E0000513002BDAD1202180F84210016B01295E
:1023F00025D100BF016851E8031F026821F01001D8
:1024000042E80313DBB1016851E8031F026821F0C1
:10241000100142E8031393B1016851E8031F0268F9
:1024200021F0100142E803134BB1016851E8031F8A
:10243000026821F0100142E80313002BDAD10021D9
:102440004163016B012918BFFFF798BC818DFEF72E
:10245000F1BE0000806B01214163016B012918BFAF
:10246000FFF79ABC818D4908FEF7E4BE0168806BD6
:102470000968C90548BFFFF7FBBC0021C18400BF44
:10248000016851E8051F026821F0800142E8051348
:1024900083B3016851E8051F026821F0800142E81A
:1024A00005133BB3016851E8051F026821F0800164
:1024B00042E80513F3B1016851E8051F026821F0F5
:1024C000800142E80513002BDAD113E0016851E8DE
:1024D000031F026841F0400142E80313002B08BFCC
:1024E0007047016851E8031F026841F0400142E86B
:1024F000031393B1016851E8031F026841F04001E2
:1025000042E803134BB1016851E8031F026841F030
:10251000400142E80313002BD8D17047806BFFF7CE
:10252000A9BC000081B090F84210222921D1836813
:102530000246B3F5805F09D152F8281F52F8183CC3
:10254000002B63D003685B680AE000BF52F8281FC5
:1025500013B90369002BF5D003685B6803F07F03B0
:102560000B70116801311160C18D01390A04C185F8
:1025700002D001B0704700BF0168CA6822F0200293
:10258000CA60CA6822F48072CA604A6922F00102F5
:102590004A61202180F8421000214163026B012A28
:1025A0003CD10163016851E8031F026821F010016A
:1025B00042E80313DBB1016851E8031F026821F010
:1025C000100142E8031393B1016851E8031F026848
:1025D00021F0100142E803134BB1016851E8031FD9
:1025E000026821F0100142E80313002BDAD10168E0
:1025F0000A68D20606D5002200920A68009249684D
:1026000000910099818D01B0FEF714BE02685268F6
:102610006FF35F2221F8022B8162A5E701B0FFF77B
:10262000ADBB0000B0B50446006804F108030ECB52
:102630000569194325F440552A4302616269E3693B
:102640001143C268194349F20C639A431143C160B4
:102650004169A26921F4407141F20043114340F401
:102660008062C4F201039A42416103D1FEF7AAFBE2
:1026700002E000BFFEF792FBE1694FF69C756368CC
:102680001922C0F6FF75B1F5004FA0FB02011FD162
:102690005A00DB0FFDF7FEFD48F21F51C5F2EB11AA
:1026A000A0FB01235A0905F1805302FB03003223EA
:1026B00003EBC000A0FB01014FF4F87000EA111019
:1026C00000EB0210C1F34211084421688860B0BDDC
:1026D0009A009B0FFDF7DEFD48F21F51C5F2EB118A
:1026E000A0FB01235A0902FB0500322303EB001073
:1026F000A0FB0101F02000EA511000EB0210C1F331
:102700004311084421688860B0BD000040F2901079
:10271000C2F20000FEF7A0BE40F2D810C2F20000E4
:10272000FFF782BCFEE7000010B504460068FEF724
:1027300083FD2068C16B09684968C1F1240184F8F0
:102740003A1094F83A10122965D1231D0ECBB4F833
:1027500014C0206904F1280EA4F838C08EE80E00D9
:102760006063C8B294F8291094F82A3061F30A2003
:1027700094F82BE0A4F85000C80863F34A10A4F8BA
:1027800052004FEA8E0040EA931062F38A20D1B2E1
:10279000A4F8540094F82D00490894F8392060F307
:1027A000CA115FFA8CF3A4F85610C0F3011162F35A
:1027B0000A23A4F85830002908BF032194F84C20BC
:1027C000C4F85A1003213F2888BF8109C4F85E105D
:1027D0002AB9012084F84C00FEF770F92064FEF756
:1027E0006DF9E16B884203D19FED0E0A0CE000BF4A
:1027F000FEF764F9E16B9FED0B1A401A00EE100A28
:10280000B8EE400A81EE000A84ED120AFEF756F98E
:1028100001462068E163211D2422BDE81040FFF736
:10282000EDB900BF00007A44FEF75CF9FFF73EFC0B
:10283000FFF752FBFFF722FBFFF77EFBFFF79AFB48
:10284000FFF7C2FBFFF7DCFB002808BFFFF718FC0F
:10285000FFF708FC4FF47A70FEF74CF8F2E7F1EE60
:10286000100A4FF6FF71C0F2C03120EA010040F0BB
:102870004070E1EE100A7047000000000000000008
:102880000102030406070809000000000102030416
:102890000006101600061016B828000800000020D8
:1028A00070000000EC0100082829000870000020DA
:1028B000B80700000C020008010000001000000032
:1028C0000024F400D80100200000000000000000F7
:1028D00000000000000000000000000000000000F8
:1028E00000000000000000000000000000000000E8
:1028F00000000000000000000000000000000000D8
:102900000000000000000000F401000000000000D2
:1029100000000000000000000000000000000200B5
:082920000000020000000000AD
:040000050800018965
:00000001FF
