:020000040800F2
:10000000E006002079020008F9190008D517000859
:10001000F519000871040008251C00080000000004
:10002000000000000000000000000000011A0008AD
:100030007504000800000000FD190008051A0008FA
:10004000930200089302000893020008930200083C
:10005000930200089302000893020008930200082C
:100060007904000893020008930200089302000834
:10007000930200089302000893020008930200080C
:1000800093020008930200089302000893020008FC
:1000900093020008930200089302000893020008EC
:1000A00093020008DD1A000893020008930200087A
:1000B00093020008930200089302000893020008CC
:1000C00093020008930200089302000893020008BC
:1000D00093020008930200089302000893020008AC
:1000E000930200089302000893020008930200089C
:1000F000930200089302000893020008930200088C
:10010000930200089302000893020008930200087B
:10011000930200089302000893020008930200086B
:10012000930200089302000893020008930200085B
:10013000930200089302000893020008930200084B
:10014000930200089302000893020008930200083B
:10015000930200089302000893020008930200082B
:10016000930200089302000893020008930200081B
:1001700093020008930200089302000800000000A8
:1001800093020008930200089302000893020008FB
:1001900093020008930200089302000893020008EB
:1001A00000000000000000009302000800F002F8C8
:1001B00000F052F814A696E8000CB244B344DA45B5
:1001C00001D100F049F8BAE80F000FA696E8300018
:1001D000A5EB040504EB0607AAEB0704A7F101074A
:1001E0004FEA15154FEA3414A4F10104AC4201D3CF
:1001F00000F032F813F0010F18BFFB1A43F00103AF
:1002000000F001F8DBE71847081B0000281B00007E
:10021000103A24BF78C878C1FAD8520724BF30C832
:1002200030C144BF04680C60704700007047000094
:100230000023002400250026103A28BF78C1FBD8EF
:10024000520728BF30C148BF0B6070471FB501F08F
:100250004AFD1FBD10B510BD00F0D0F81146FFF7E4
:10026000F5FF01F0E1FC00F0EEF803B4FFF7F2FF58
:1002700003BC00F0F5F80000094880470948004732
:10028000FEE7FEE7FEE7FEE7FEE7FEE7FEE7FEE746
:10029000FEE7FEE704480549054A064B70470000A3
:1002A000C91A0008AD010008E0000020E0060020A7
:1002B000E0020020E002002053EA020C00F0698016
:1002C0002DE9F04B4FF00006002B1FBFB3FA83F56A
:1002D00003FA05F424FA05F65E4012BF1643B2FA9B
:1002E00082F502FA05F4C5F120051EBF22FA05FCCD
:1002F00044EA0C04203556EA044C4FEA144418BF73
:10030000641C4FF000084FF00009904271EB030CA1
:1003100039D3002919BFB1FA81F701FA07F6B0FA0B
:1003200080F700FA07F6C7F120071EBF20FA07FC86
:1003300046EA0C062037B6FBF4FCA7EB0507103F96
:1003400007F01F0BCBF120062CFA06F60CFA0BFB7C
:1003500044BFB3460026202FA4BF5E464FF0000BDB
:100360005BEA060C08BF4FF0010B19EB0B0948EBD9
:100370000608ABFB027C06FB02CC0BFB03CCC01BCC
:1003800071EB0C01C1E70B46024641464846BDE809
:10039000F08B13B5084318BF4FF0FF300146AFF3A1
:1003A0000080BDE81C4070474FF0000200B51346C6
:1003B00094469646203922BFA0E80C50A0E80C5085
:1003C000B1F12001BFF4F7AF090728BFA0E80C5036
:1003D00048BF0CC05DF804EB890028BF40F8042B2F
:1003E00008BF704748BF20F8022B11F0804F18BF9C
:1003F00000F8012B7047704770477047754600F052
:100400002BF8AE4605006946534620F007008546A6
:1004100018B020B5FFF73EFFBDE820404FF00006C2
:100420004FF000074FF000084FF0000BAC46ACE86F
:10043000C009ACE8C009ACE8C009ACE8C00921F0CB
:1004400007018D46704710B50446AFF30080204683
:10045000BDE81040FFF709BF0048704710000020BA
:1004600001491820ABBEFEE72600020070470000DD
:10047000FEE7000070470000042000F02FB80000E5
:1004800072B600BFFEE7000010B5044640F28800D7
:10049000C2F2000000F03CF9042C1ED100F002F979
:1004A00040F27001C2F200010A78012A04D14A68C0
:1004B000821A1E2A38BF10BD0122486040F278001F
:1004C0000A70C2F20000017845F2565201314A43E7
:1004D000120C02EB4202891A017010BD43F614415E
:1004E000C4F201010A68024214BF08607047FFF7B6
:1004F000CBBF00002DE9F04F83B000F1200200F1E6
:100500003E4742F20045009207F1FF77C4F2020530
:100510000A224FEAB726A84208BF092200254FF059
:1005200000084FF00009092E38BF4FEAB7220192A8
:100530000AE000BF09F1010908F10208B9F1100F42
:1005400005F1040500F0A2800F68012202FA09FEFD
:1005500017EA0E0AEED0D1F804C003220CF003070C
:100560007E1E02FA08F4012E6FEA040B12D884688A
:10057000CE6804EA0B0406FA08F634438460446843
:1005800024EA0E06CCF3001404FA09F4264346606C
:1005900004E000BF032F01D103271EE0C6688C686A
:1005A00006EA0B0604FA08F42643022FC66014D1AB
:1005B0006FF00302009E02EA590756F807C005F0E3
:1005C0001C040F220B69A2402CEA0202A3401A432A
:1005D000F251D1F804C00CF00307026807FA08F3DF
:1005E00002EA0B021A431CF4403F0260A2D0002230
:1005F00043F644030292C4F202031A6843F600442D
:1006000042F480421A601A68C4F2010402F4804283
:100610000292029A29F003024FF6084C2244CFF6C8
:10062000FF7C52F80C3005F00C070F26BE40B34398
:10063000019E06FA07F73B4342F80C30A2684B686C
:1006400042EA0A0743F60C4CDE0258BF22EA0A07C8
:10065000A760C4F2010CDCF800209E0242EA0A07FF
:1006600058BF22EA0A07CCF8007062689E0342EA8B
:100670000A0758BF22EA0A0767602268DB0342EADA
:100680000A0758BF22EA0A07276053E703B0BDE80C
:10069000F08F0000426902EA0103914341EA0341FD
:1006A0008161704740F2DC00C2F2000000687047D0
:1006B000002804BF0120704770B504460068D4E9E3
:1006C00001124CF6CC43036045F255530360416080
:1006D0008260FFF7E7FF2168CA68920712D00546DB
:1006E00041F6020603E000BFC86880070AD0FFF7A2
:1006F000D9FF401B2168B042F6D3C8688007F3D009
:10070000032070BD4AF6AA200860002070BD0000DA
:1007100001684AF6AA2200200A60704740F20000F1
:1007200040F2DC01C2F20000C2F2000100780A6867
:10073000104408607047000080B543F60040C4F2E2
:100740000200016841F400710160016841F48061B8
:100750000160016841F480710160032000F086F8B7
:100760000F2000F005F800F027F8002080BD000001
:1007700070B540F20006C2F2000640F2080132787D
:10078000C2F200014FF47A730968B3FBF2F2044637
:10079000B1FBF2F1084600F077FB0F2C4FF001059A
:1007A00008D838B94FF0FF3021460022002500F06C
:1007B00031F87460284670BD82B0002043F64001D5
:1007C0000190C4F202014A6842F480424A604A68D9
:1007D00002F480420192019A0090086840F0805033
:1007E0000860086800F080500090009802B07047E0
:1007F000002848BF704700F01F01012202FA01F1F2
:100800001C2202EAD0004EF20012CEF20002815009
:100810007047000010B54EF60C5CCEF2000CDCF810
:100820000030C3F3022E8EF00704042C28BF0424EA
:10083000BEF103034FF0FF3E0EFA04F438BF00236D
:10084000A14399400EFA03F39A43114300F00F02BB
:1008500000F160430901043A03F56443624400284F
:1008600048BF02F10C03197010BD00004EF60C5188
:10087000CEF200010A684FF6FF031A4060F30A2225
:1008800042F0806040F0FD700860704770B582B043
:100890000020019043F64000C4F2020001684026A7
:1008A00041F0805101600068C4F20E2600F08050D3
:1008B0000190019847F204050120C4F20005306060
:1008C000FFF7F0FE044600BF2868C00306D4FFF718
:1008D000E9FE001BB0F57A7FF6D90EE001207060CA
:1008E000FFF7E0FE044600BF2868800308D4FFF746
:1008F000D9FE001BB0F57A7FF6D9032002B070BD97
:10090000002002B070BD0000002804BF0120704725
:100910002DE9F04143F60808C4F202080446D8F86D
:10092000F8030D4600F00F00814207D988F8F8530C
:10093000D8F8F80300F00F00A84277D120688107AB
:1009400017D5410705D5D8F8001041F4E051C8F893
:100950000010010705D5D8F8001041F46041C8F82F
:100960000010D8F80010A26821F0F0011143C8F877
:100970000010C00740D1D8F8F80300F00F008542FE
:1009800007D288F8F853D8F8F80300F00F00A8420F
:100990004CD12068410707D5D8F80010E26821F44F
:1009A000E0511143C8F80010000708D5D8F800003E
:1009B000216920F4604040EAC100C8F8000000F05E
:1009C00055F8D8F8001041F60052C1F30311C0F6F3
:1009D0000002515C40F2080220FA01F140F20400EA
:1009E000C2F200000068C2F200021160FFF7C0FE10
:1009F0000020BDE8F08100BF6068811E022907D297
:100A000058F8081C89015CBF0120BDE8F08111E0A5
:100A1000012807D158F8081C89035CBF0120BDE8F4
:100A2000F08107E058F8081C890703D40120BDE8CD
:100A3000F08100BFD8F8001021F003010843C8F886
:100A40000000FFF72FFE064641F28837D8F8000075
:100A5000616800F00C00B0EB810F8CD0FFF722FE34
:100A6000801BB842F2D90320BDE8F08110B543F6EF
:100A70000404C4F202046168C1F3810142F200403F
:100A8000C0F2F400DFE801F002040A0210BD00BF6A
:100A900041F60030C0F2B70010BD00BF20682168E9
:100AA0002368490241F60031C0F2B70100F03F026D
:100AB000C3F388105CBF42F20041C0F2F401A1FB15
:100AC00000010023FFF7F8FB21680222C1F3014176
:100AD00002EB4101B0FBF1F010BD0000002804BFA3
:100AE000012070472DE9F04182B00446007843F6BA
:100AF0000006C007C4F202060CD0B06800F00C007B
:100B0000042840F081803068800303D560680028A5
:100B100000F06881207880071BD5B06810F00C0FBA
:100B200009D0B06800F00C00082840F08780706899
:100B3000400200F183803068800703D5E068012817
:100B400040F050813068216920F0F80040EAC1008F
:100B500030602078000713D4207840072AD4A56994
:100B6000002D00F03A81B06800F00C00082840F039
:100B7000A580012D40F00E81012002B0BDE8F0817A
:100B80006069002800F082800020C4F24720012123
:100B9000C0F8801EFFF786FD054600BF706F800716
:100BA000DAD4FFF77FFD401B0228F7D9032002B0FB
:100BB000BDE8F081306C5FEAC0080AD400200190E3
:100BC000306C40F080503064306C00F08050019008
:100BD000019847F20007C4F200073868C00547D4FF
:100BE000386840F480703860FFF75CFD054600BF50
:100BF0003868C0053CD4FFF755FD401B0228F7D9E3
:100C0000032002B0BDE8F081B06800F00C000828B5
:100C100003D1706840023FF576AF61683068B1F586
:100C2000803F07D0B1F5A02F40F09A8040F480209B
:100C30003060306840F4803030609AE0E06800282E
:100C400040F20000C4F247205CD001210160FFF7B0
:100C500029FD0546306880073FF574AFFFF722FD98
:100C6000401B0228F6D9032002B0BDE8F08100BF86
:100C7000A168306F012905D0052955D140F0040045
:100C80003067306F40F00100306756E00020C4F25A
:100C900047200021C0F8801EFFF704FD054600BF75
:100CA000706F80077FF558AFFFF7FCFC401B0228F0
:100CB000F6D9032002B0BDE8F08100BF0027C4F2DE
:100CC000472700203866FFF7EDFC022D05460DD1C1
:100CD0003068800140F18A80FFF7E4FC401B022865
:100CE0004FF00300F4D902B0BDE8F0813068800114
:100CF00073D5FFF7D7FC401B02284FF00300F5D94E
:100D0000F1E700BF00210160FFF7CCFC054600BF02
:100D1000306880077FF51DAFFFF7C4FC401B022839
:100D20004FF00300F4D9DEE720F001003067306FA8
:100D3000002920F0040030677AD0FFF7B3FC0546A5
:100D400041F28837306F800700F18480FFF7AAFCFA
:100D5000401BB842F6D9032002B0BDE8F08100BFC5
:100D600020F4803030603068002920F4802030602A
:100D70007AD0FFF797FC0546306880033FF5CAAE8E
:100D8000FFF790FC401B6428F6D9032002B0BDE8B1
:100D9000F08100BF7068E16900F480028A4221D1CD
:100DA000216A00F03F028A421CD147F6C071626A94
:100DB0000140B1EB821F15D1A16A4FF6FF73C90341
:100DC000994300F44032A1F580318A420AD1E16AA8
:100DD00000F07060B0EB016F04D1002002B0BDE8FC
:100DE000F08100BF012002B0BDE8F08104F11C05D4
:100DF0002FCD084340EA8210D9034FF6FF7291438A
:100E0000A1F5803140EA0560084370600120386632
:100E1000FFF748FC044600BF30688001DDD4FFF7CF
:100E200041FC001B02284FF00300F5D95BE700BF2F
:100E3000FFF738FC054641F2883700BF306F800766
:100E400008D5FFF72FFC401BB8424FF00300F5D93F
:100E500049E700BFB8F1000F3FF581AE306C20F0DC
:100E6000805030647BE600BFFFF71CFC054600BFE6
:100E7000306880037FF54EAEFFF714FC401B6428FA
:100E80004FF00300F4D92EE7411E0020B0EB116FA4
:100E90001CBF012070474EF21002CEF200025160DA
:100EA0004EF62351CEF20001F0230B700721906023
:100EB00011607047704700007047000090F83C20B8
:100EC000012A04BF02207047B0B501F108053CCDEE
:100ED000D1E900CE23F47C5322F470521A432EF44D
:100EE000F0431A432CF4E0431A4324F4C0431A435A
:100EF0002A43C96922F480420368114359640021DE
:100F000080F83C100020B0BD90F83C20012A4FF042
:100F1000020254D010B580F83D200268D2F804E0F7
:100F2000D2F808C00C682EF07003234341F2FF741E
:100F3000C4F20004A24253600EDC40F2FF73C4F21C
:100F400000039A4216DCB2F1804F2BD040F20043EE
:100F5000C4F2000324E000BF40F2FF33C4F20103F7
:100F60009A4213DC41F60003C4F200039A4219D0FE
:100F7000002313E040F60003C4F200039A4211D0AC
:100F800040F60043C4F200030AE000BF44F200034D
:100F9000C4F201039A4205D040F20043C4F20103B7
:100FA0009A4204D149682CF08003194391600121D1
:100FB000002280F83D1080F83C20BDE8104010462B
:100FC00070470000002804BF0120704710B5044698
:100FD00090F83D0028B9002084F83C00204600F03D
:100FE0001FF8022084F83D002068211D00F07CFDE0
:100FF000012084F8460084F83E0084F83F0084F81D
:10100000400084F8410084F8420084F8430084F8EA
:10101000440084F8450084F83D00002010BD000025
:1010200000680021C4F20101884218BF704780B5F2
:1010300082B00020019043F64400C4F2020001682F
:10104000002241F0010101600068002100F0010070
:10105000019001981920FFF7DDFB192002B0BDE8CF
:101060008040FFF7C5BB000090F83D1001291CBF70
:1010700001207047022180F83D10006841F2FF72A4
:10108000C168C4F20002904241F00101C1600DDC70
:1010900040F2FF71C4F20001884215DCB0F1804FCC
:1010A0002AD040F20041C4F2000123E040F2FF31B7
:1010B000C4F20101884213DC41F60001C4F20001D0
:1010C000884219D0002113E040F60001C4F200016B
:1010D000884211D040F60041C4F200010AE000BF8E
:1010E00044F20001C4F20101884205D040F20041FF
:1010F000C4F20101884206D1816801F00701062986
:1011000004BF00207047016841F001010160002028
:101110007047000090F83C20012A4FF002026CD08A
:1011200080B580F83D20D0F800C04FF67772DCF82B
:10113000083023EA0202CCF808200B684F2B29DC88
:101140001F2B45DD202B46D0302B44D0402B40F0C8
:10115000AF80D1F804E0C968DCF82030DCF820204A
:1011600022F00102CCF82020DCF8182022F0F00256
:1011700042EA011123F00A0242EA0E02CCF81810EA
:10118000CCF82020DCF8081041F0470121F03001B4
:1011900028E000BF6F2B33DDB3F5005F74D0B3F5EB
:1011A000805F21D0702B40F08380D1E901E3C968D2
:1011B000DCF8082043EA0E0322F47F4243EA0121CF
:1011C0001143CCF80810DCF8081041F0770109E071
:1011D0000BB1102B6CD1DCF8081021F07001194311
:1011E00041F00701CCF808100022012180F83D10E1
:1011F000002180F83C10BDE880401046704700BFD9
:10120000502B21D0602B53D1D1F804E0C968DCF811
:101210002030DCF8202022F01002CCF82020DCF86E
:10122000182022F4704242EA013123F0A00242EA7F
:101230000E12CCF81810CCF82020DCF8081041F081
:10124000670121F01001CDE7D1F804E0C968DCF8AE
:101250002030DCF8202022F00102CCF82020DCF83D
:10126000182022F0F00242EA011123F00A0242EAB9
:101270000E02CCF81810CCF82020DCF8081041F051
:10128000570121F02001ADE7D1E901E3C968DCF89D
:10129000082043EA0E0322F47F4243EA012111436E
:1012A000CCF80810DCF8081041F480419AE700BF40
:1012B00001229AE77047000070B504460068C568CF
:1012C0000669B10716D515F0020113D06FF00201BF
:1012D0000161012121778069800703D02046FFF753
:1012E000E9FF05E0204600F08FF8204600F0CEF937
:1012F00000202077700719D515F0040016D020685B
:101300006FF00401016102212177806910F4407FB0
:1013100004D02046FFF7CEFF06E000BF204600F0D5
:1013200073F8204600F0B2F900202077300717D577
:1013300015F0080014D020686FF008010161042145
:101340002177C069800703D02046FFF7B3FF05E08F
:10135000204600F059F8204600F098F90020207748
:10136000F00619D515F0100016D020686FF01001A6
:10137000016108212177C06910F4407F04D0204624
:10138000FFF798FF06E000BF204600F03DF820463A
:1013900000F07CF900202077F00718BF15F001005D
:1013A00002D1300609D412E020686FF0010101611A
:1013B000204600F0F5F9300609D515F0800006D07A
:1013C00020686FF0800101612046FFF773FD700611
:1013D00009D515F0400006D020686FF0400101618A
:1013E000204600F0F5F9B00658BF70BD15F020009A
:1013F00008D021686FF0200220460A61BDE87040E5
:10140000FFF75ABD70BD00007047000090F83C30F7
:10141000012B04BF022070474FEAB202032A00F2F8
:10142000FF802DE9F043DFE802F003B13F7F00BF0A
:10143000036840F200461C6A1A6A24F0020422F093
:1014400001021A621A46D3F804C052F818EF8F68E6
:1014500043F48065C4F20106B54244EA070405D1AD
:10146000CF6824F00C0427F004073C430F68B54212
:1014700006D1D1E905582CF440762E4346EA080CF3
:101480002EF073063743C3F804C09F614F680969A3
:101490005F631C629F6947F008079F619F6927F09F
:1014A00004079F61B1E000BF036840F200481C6A76
:1014B0001A6A24F4007422F480721A621A46D3F86D
:1014C00004C052F81CEF8F6843F48065C4F2010831
:1014D000454544EA072408D1CF6840F2FF463F0261
:1014E00024F4406427EA06063443D1F800904545C9
:1014F00006D1D1E905562CF440572E4347EA061C85
:101500002EF0730747EA0907C3F804C0DF614F688C
:101510000969DF631C62DF6947F00807DF61DF6983
:1015200027F00407DF6170E0036840F20045D3F85C
:1015300020C01A6A43F4806722F480521A621A4665
:101540005C6852F81C8FD1F800E08E68C4F2010587
:10155000AF4204D14D6924F4804444EA85142CF44C
:10156000005747EA063728F4E64646EA0E265C604E
:10157000DE614E6809691E641F62DF6947F4006717
:10158000DF61DF6927F48067DF613DE0036840F2D7
:1015900000481C6A1A6A24F0200422F010021A6221
:1015A0001A46D3F804C052F818EF8F6843F48065E8
:1015B000C4F20108454544EA071407D1CF686FF02B
:1015C000400624F0C00406EA07163443D1F8009020
:1015D000454506D1D1E905562CF440672E4347EA2C
:1015E000860C2EF4E64747EA0927C3F804C09F613A
:1015F0004F6809699F631C629F6947F400679F6198
:101600009F6927F480679F6109021368194311607D
:101610000021BDE8F043002280F83C2008467047D6
:101620000121002280F83C2008467047002804BFB2
:101630000120704710B5044690F83D0028B90020FD
:1016400084F83C00204600F01FF8022084F83D009A
:101650002068211D00F048FA012084F8460084F833
:101660003E0084F83F0084F8400084F8410084F88C
:10167000420084F8430084F8440084F8450084F86C
:101680003D00002010BD00007047000070470000C2
:10169000C1B1042908D0082914BF41224022825C2C
:1016A000012A05D016E000BF3F22825C012A11D139
:1016B0000222082910D0042914BF80F8412080F8A4
:1016C0003F200BE090F83E20012A03D1022280F84F
:1016D0003E2003E00120704780F84020006801F0C0
:1016E0001F010122036A02FA01F123EA01020262E8
:1016F000026A114341F2FF72C4F200029042016299
:101700000CDC40F2FF71C4F20001884214DCB0F13D
:10171000804F37D040F2004116E000BF40F2FF3169
:10172000C4F20101884215DC41F60001C4F2000157
:10173000884227D0002115E040F60001C4F20001E4
:1017400088421FD040F60041C4F20001884219D0FF
:101750001FE000BF44F20001C4F20101884211D031
:1017600040F20041C4F20101884212D1416C40F2C2
:10177000004340F48062C4F2010341F400419A4204
:10178000416406D1816801F00701062904BF0020E9
:101790007047016841F001010160002070470000BE
:1017A000B0B5044640F288000025C2F20000C4F241
:1017B0000105FEF7ADFF2068A84218BFB0BD05F5D2
:1017C00088304FF40061BDE8B040FEF763BF000011
:1017D00070470000FEE7000080B586B0002043F6A9
:1017E00030010590CDE90300CDE901000090C4F27D
:1017F00002010A6842F001020A600A6802F001026E
:101800000092009A00900A6842F080020A600A681A
:1018100002F080020092009A00900A6842F00202F0
:101820000A600A6802F002020092009A00900868BA
:1018300040F010000860086801A900F01000009056
:101840000098042001904FF4881002900220039029
:1018500040F20040C4F20200FEF74CFE08200021D6
:101860000022FEF7D7FF0820FEF7C2FF06B080BDBA
:1018700080B540F2880043F20001C2F20000C4F2D9
:101880000001022240F69F7380E80E00FEF710FF71
:10189000002808BF80BDBDE88040FEF7F1BD000014
:1018A00070B59CB0002540F29400C4F201050021FF
:1018B000C2F20000B32240F2E7331591CDE91311D3
:1018C0001191CDE90F11CDE90D11CDE90B11CDE944
:1018D0000911CDE90711CDE90511CDE90311CDE9D4
:1018E0000111C0E90052C0E90213C0E9041181618D
:1018F000FFF768FB002818BFFEF7C2FD4FF48050C9
:10190000129040F29400C2F2000012A9FFF702FC0C
:10191000002818BFFEF7B4FD40F29400C2F20000A8
:10192000FFF784FE002818BFFEF7AAFD40F29400DE
:101930000024C2F2000010A9CDE91044FFF7E4FA38
:10194000002818BFFEF79CFD702009904FF4FA7034
:10195000CDE90A0440F29400C2F2000009A9042271
:10196000CDE90C44CDE90E44FFF750FD002818BF27
:10197000FEF786FD40F294044FF40050C2F20004DA
:101980000026069001A920460596CDE90366CDE91B
:1019900001660896FFF792FA002818BFFEF770FD5F
:1019A00020681B96A842CDE919661896179601D0B3
:1019B0001CB070BD002043F630011690C4F2020145
:1019C0000A6842F010020A60096801F010011691DD
:1019D00016994FF4006117910221CDE918101A9061
:1019E00001201B9005F5883017A9FEF783FD1CB078
:1019F00070BD0000FEE70000FEE700007047000039
:101A000070470000FEF78ABE10B592B006AC2046C3
:101A10003021FEF7C9FC002043F640010590CDE9D6
:101A20000300CDE901000090C4F202010A6842F00F
:101A300080520A60096801F080510091009900907D
:101A400047F20000C4F20000016841F44041016027
:101A500000684FF4800100F4404000900098092095
:101A600006904FF48030079001200D9106210B90D5
:101A700002200E91B4210C90CDE90F10042011909A
:101A80002046FFF72BF818B172B600BFFEE700BF83
:101A9000FEF7FCFE10B172B6FEE700BF0F2001900A
:101AA00002200290002003904FF4A05004904FF4C5
:101AB0008050059001A80521FEF726FF10B172B6EF
:101AC000FEE700BF12B010BD4EF68850CEF2000007
:101AD000016841F4700101607047000040F2940019
:101AE000C2F20000FFF7E8BBB0B540F6FF3E056864
:101AF000C4F2000E40F2004C7045C4F2010C25DC2B
:101B0000B0F1804F2FD040F20043C4F2000398425E
:101B100029D040F60003C4F20003984223D041F6D6
:101B2000FF73C4F20003984228DC70453ADCB0F140
:101B3000804F5BD040F20043C4F20003984255D07E
:101B400040F60003C4F200034EE000BF40F600433D
:101B5000C4F20003984206D0604504D00023C4F2CA
:101B600001039842DBD14B6825F0700243EA02057D
:101B700041F6FF73C4F200039842D6DD43F6FF73CB
:101B8000C4F2010398421FDC42F20003C4F20003D6
:101B900098422BD00023C4F20103984226D060451E
:101BA00024D028E040F60043C4F2000398421DD040
:101BB00041F60003C4F20003984217D041F60043F7
:101BC000C4F2000310E000BF44F20003C4F20103BA
:101BD00098420BD044F60003C4F20103984205D0AA
:101BE00044F20043C4F20103984204D1CB6825F4C7
:101BF000407243EA02050A688C684B69C46240F48B
:101C000080648262644504BF09690163026825F04B
:101C1000800142F004021943026001224261016026
:101C2000B0BD0000FEE70000FEF786FDFFF7ECFE0A
:101C3000FFF7D2FDFFF734FEFFF71AFE40F29404DF
:101C4000C2F2000420460421FFF722FD2046FFF7E0
:101C50000BFA40F2780540F20C06C2F20005C2F21F
:101C6000000602E000202168886328780028F9D067
:101C70002878012818D1FEF715FDA968401A0A280E
:101C8000F3D3FEF70FFDA8603068696800EB8000B1
:101C900001EB4000B0F57A7F68601DDB4FF0FF314B
:101CA0004FF47A701CE000BF28780228DDD1FEF7DF
:101CB000F9FCE968401AB0F5FA7FD6D3FEF7F2FCDA
:101CC0006978E860B1FA81F0400968700020002965
:101CD00008BF4FF4FA70C6E70028C4DC01210020D9
:101CE00068603160BFE7F1EE100A4FF6FF71C0F295
:101CF000C03120EA010040F04070E1EE100A704768
:101D000000000000000000000102030406070809AB
:101D1000301D000800000020100000001002000824
:101D2000401D000810000020D0060000300200080E
:101D300001000000100000000024F4000100000079
:04000005080001AD41
:00000001FF
